:020000040000FA
:100000000C94C5010C94F6010C94F6010C94F601C5
:100010000C94F6010C94F6010C94F6010C94F60184
:100020000C94F6010C94530E0C94530E0C94530E36
:100030000C94F6010C94F6010C94F6010C94F60164
:100040000C94F6010C94250E0C94F6010C94F60118
:100050000C94F6010C94F6010C94F6010C94910C9E
:100060000C94F6010C94650D0C943B0D0C94F60168
:100070000C94F6010C94F6010C94F6010C94F60124
:100080000C94F70D0C94F6010C94F6010C94F60107
:100090000C94050D0C94DB0C0C94F6010C94F601F9
:1000A0000C94F6010C94F6010C94C90D0C94F60115
:1000B0000C94F6010C94F6010C94F6010C949B0D33
:1000C0000C94F6010C94F6010C94F6010C94F601D4
:1000D0000C94F6010C94F6010C94F6010C94F601C4
:1000E0000C94F6010C9493140C9424040C94E705DE
:1000F0000C941E040C94ED030C941A040C946F08D9
:100100000C9428040C94D2030C9408040C949006CC
:100110000C940E0A0C94E4070C94CF0E0C949008E7
:100120000C9440060C94FE030C9410040C94FC07F1
:100130000C941D060C94F8030C9491080C94D703AE
:100140000C94FD070C942C060C9459080C94F503A0
:100150000C9402040C944E060C94F1030C94E903E5
:100160000C9416040C94DD060C940C0400407A10D8
:10017000F35A00A0724E18090010A5D4E80000E858
:100180007648170000E40B54020000CA9A3B0000B6
:1001900000E1F505000080969800000040420F0045
:1001A0000000A08601000000102700000000E80306
:1001B000000000006400000000000A0000000000D1
:1001C0000100000000002C76D888DC674F0823DF90
:1001D000C1DFAE59E1B1B796E5E3E453C63AE65163
:1001E000997696E8E6C28426EB898C9B62ED407C8A
:1001F0006FFCEFBC9C9F40F2BAA56FA5F490055A26
:100200002AF75C936B6CF9676DC11BFCE0E40D474A
:10021000FEF520E6B500D0ED902E0300943577056D
:100220000080841E080000204E0A000000C80C3325
:100230003333330F986E12831141EF8D2114893BB4
:10024000E65516CFFEE6DB18D1844B381BF77C1D34
:10025000901DA4BBE424203284725E228100C9F187
:1002600024ECA1E53D2700002100240027002A00FE
:100270002D003000330001010000040107010A01D4
:1002800000000A0B02090C0D0E0807030401000010
:10029000000000000000000000000000000000005E
:1002A000000000000000000000000000121110001B
:1002B000000000000000000000000000000000003E
:1002C000000000000000000020002300260029009C
:1002D0002C002F003200000100000301060109017B
:1002E00000002200250028002B002E0031003400E1
:1002F00002010000050108010B01050505050705C0
:1003000008080808020202020A0A08080404040491
:1003100001010101010101010303030303030303BD
:10032000040707070C0C0C0C0C0C0C0C020202024C
:1003300006060606060606060B0B0B0B0B0B0B0B35
:1003400001021020200808102040102040800201E7
:1003500002010804020101020408102040808040CC
:1003600020100804020180040201804020100804CB
:100370000201080402010102040810204080010269
:10038000040810204080CF0E931411241FBECFEF1D
:10039000D1E2DEBFCDBF00E00CBF13E0A0E0B2E0D1
:1003A000E0E0F8E300E00BBF02C007900D92A43735
:1003B000B107D9F725E0A4E7B3E001C01D92A73E3D
:1003C000B207E1F711E0C4ECD1E000E006C02197EC
:1003D0000109802FFE010E94C919C33CD10780E0AA
:1003E0000807A9F70E9418100C94EE1B0C9400004B
:1003F000FC01A089B18982E08C93A485B5851C920B
:10040000A685B7858FEC8C93108EA489B58986E07C
:100410008C93A289B3898C9180618C93A289B389D2
:100420008C9188608C93A289B3898C9180688C931D
:100430000288F389E02D80818F7D8083089510925A
:10044000DF051092DE051092DD051092DC0510929A
:10045000DB051092DA058DE991E09093E105809338
:10046000E0058091D00596EF980F943048F02EEC7F
:10047000280F243028F022EC280F283008F061C023
:100480002DEB30E03093DB052093DA052BE931E0EA
:100490003093DD052093DC052CE231E03093DF055D
:1004A0002093DE05943050F02EEC280F243030F0ED
:1004B00022EC280FF0E0E0E0283010F4E8E6F0E06D
:1004C0002081943028F032EC380F383008F469C0BD
:1004D00031E0232B943048F09EEC980F943028F0B4
:1004E0008E53F0E0E0E0883010F4E8E6F0E020839E
:1004F0002091D00536EF320F343008F454C08EEC22
:10050000820F843008F44FC082EC820F883008F4E8
:100510004DC090E080E09093D8058093D7053430AB
:1005200008F047C02650330B81E001C0880F2A95A0
:10053000EAF78093D9058091E0059091E105019754
:10054000F1F78091DE059091DF05892B49F1E0916B
:10055000C903F091CA0385E0E43CF80709F130973C
:1005600039F0A389B4899C918589809589238C93DE
:100570008091E2058E7F8093E2051092C80310926D
:10058000C70384EC95E09093CA038093C903E0917C
:10059000D705F091D80580819091D905892B80836A
:1005A000089534E096CF8BE690E0B5CF8DE690E0ED
:1005B000B2CF88E0223309F4BCCF84E0233309F4BE
:1005C000B8CF82E0243309F4B4CF82EC820F8830B4
:1005D00018F42E53330BA8CF81E0ABCFCF92DF922C
:1005E000EF92FF92DC01A03282E0B807D4F5A53B80
:1005F000B10514F0A4EBB0E04091970528E830E095
:10060000241B310947FD3395220F331F220F331F5F
:100610006901330FEE08FF084091980528E532E0A4
:10062000241B310947FD3395220F331F220F331F3F
:10063000032E000C440B550B2C193D094E095F0984
:10064000B7FF02C0B0E0A0E00E946C1824EB30E0DD
:1006500040E050E00E944218C20ED31EE41EF51E78
:10066000D601E0919605E03380F52091970588E862
:1006700090E0821B910927FD9395880F991F880FA1
:10068000991FA817B90784F02091980588E592E092
:10069000821B910927FD9395880F991F880F991F39
:1006A000A817B9070CF4CD010297880F991F4FB70F
:1006B000F8942E2F30E0F901EE0FFF1FE20FF31F29
:1006C000EB5FFA4F928381834FBFFF90EF90DF90F3
:1006D000CF900895CF92DF92EF92FF92CF93DF9366
:1006E000B091B805A0E08111AB2F8091B90590E0E1
:1006F000880F991FAC014A535D4FC090BE05D09042
:10070000BF05E090C005F090C10530E020E0FA019F
:10071000C591D491E881B90190E080E0EB23EA1320
:100720000AC02F5F3F4F6C157D058E059F0578F33E
:100730006FEF7FEFCB01DF91CF91FF90EF90DF90D4
:10074000CF900895282F30E0F901E058FD4F9491A3
:10075000F901E05CFC4F449126503D4FF901249192
:10076000222309F435C0992311F191509231F8F404
:10077000E92FF0E08827E054FC4F8F4F0C94C91903
:10078000F103F503D203E903ED03D703F803FE03F6
:10079000020408040C04100416041A04D7031E04EF
:1007A00024042804809180008F7780938000E22FBA
:1007B000F0E0EE0FFF1FE052FD4FA591B4918FB70F
:1007C000F894EC91611148C040954E234C938FBF33
:1007D0000895809180008F7DE8CF80918000877F91
:1007E000E4CF84B58F7784BDE2CF84B58F7DFBCF16
:1007F0008091B0008F778093B000D9CF8091B00006
:100800008F7DF9CF809190008F7780939000CFCF2C
:10081000809190008F7DF9CF80919000877FF5CFF8
:100820008091A0008F778093A000C1CF8091A0001D
:100830008F7DF9CF8091A000877FF5CF8091200137
:100840008F7780932001B3CF809120018F7DF9CFE6
:1008500080912001877FF5CF4E2BB8CFCF93DF93C8
:1008600090E0FC01E05CFC4F249186509D4FFC0120
:1008700084918823C9F090E0880F991FFC01EA5900
:10088000FD4FA591B491FC01E052FD4FC591D4916B
:1008900061110DC09FB7F8948C91209582238C93A1
:1008A0008881282328839FBFDF91CF9108956230EC
:1008B00051F49FB7F8943C91822F809583238C93B9
:1008C000E8812E2BEFCF8FB7F894EC912E2B2C9341
:1008D0008FBFEACF90917B00977F90937B008653E8
:1008E000806480937C0080917A00806480937A0099
:1008F00080917A0086FDFCCF8091780090917900FC
:1009000008953FB7F8948091BF039091C003A091E0
:10091000C103B091C20326B5A89B05C02F3F19F0B3
:100920000196A11DB11D3FBFBA2FA92F982F88276F
:10093000BC01CD01620F711D811D911D42E0660F4A
:10094000771F881F991F4A95D1F708958F929F921C
:10095000AF92BF92CF92DF92EF92FF924B015C0178
:100960000E9481046B017C010E9481046C197D0945
:100970008E099F09683E734081059105A8F321E027
:10098000821A9108A108B10888EEC80E83E0D81E2B
:10099000E11CF11C81149104A104B10429F7FF901A
:1009A000EF90DF90CF90BF90AF909F908F90089581
:1009B000CF92DF92EF92FF920F931F93CF93DF932B
:1009C000CDB7DEB7C054D1400FB6F894DEBF0FBE2E
:1009D000CDBF2FB7F8948091C3039091C403A09129
:1009E000C503B091C6032FBF4091BA055091BB0516
:1009F0006091BC057091BD058C019D01041B150B18
:100A0000260B370BB901A801403D57406105710520
:100A100090F48091C205C05CDE4F0FB6F894DEBF43
:100A20000FBECDBFDF91CF911F910F91FF90EF903F
:100A3000DF90CF9008958093BA059093BB05A09363
:100A4000BC05B093BD051092B5051092B405109287
:100A5000B3051092B2051092B10562E08091B6051F
:100A60000E942E0461E070E080E090E00E94A60405
:100A700061E08091B6050E942E0460E08091B60589
:100A80000E94A2038091B7058551823020F58BE248
:100A900091E10197F1F762E08091B6050E942E0482
:100AA0008091C30590E08230910538F0880F991F3E
:100AB000880F991F05970197F1F7F89480E00E943D
:100AC0006A036F3F7F4F8F4F9F4F61F41092C205B3
:100AD000789480E0A0CF64E170E080E090E00E9434
:100AE000A604D9CF81E00E946A036F3F7F4F8F4FEA
:100AF0009F4F61F38E010F5F1F4F6E018FEBC81A7E
:100B00008EEFD80A780180E00E946A03F7016083C3
:100B100071838283938381E00E946A03F701648377
:100B2000758386839783F8E0EF0EF11CEC14FD04C7
:100B300051F7789430E020E0F801C080D180E28065
:100B4000F3804481558166817781FFEFCF16DF0600
:100B5000EF06FF0631F04F3F8FEF58076807780721
:100B600019F41092C205B5CFF90183E0F595E79528
:100B70008A95E1F7EF54FA4F8081880FC416D506A5
:100B8000E606F70610F180832F5F3F4F085F1F4F87
:100B90002832310589F64091B5052091B105809143
:100BA000B205280F3327331F8091B305280F311D5D
:100BB0008091B405820F932F911D9927481719062C
:100BC00081F681E08093C20526CF8160DCCFAF92B1
:100BD000BF92CF92DF92EF92FF920F931F93CF932A
:100BE000DF936C017B018B01040F151FEB015E018C
:100BF000AE18BF08C017D10759F06991D601ED9121
:100C0000FC910190F081E02DC6011995892B79F7AF
:100C1000C501DF91CF911F910F91FF90EF90DF9071
:100C2000CF90BF90AF900895FC01448155816081C1
:100C3000718189E995E00C94E705FC01538D448DA1
:100C4000252F30E0842F90E0821B930B541710F077
:100C5000CF96089501970895FC01918D828D981784
:100C600061F0A28DAE0FBF2FB11D5D968C91928D5C
:100C70009F5F9F73928F90E008958FEF9FEF08958D
:100C8000FC01918D828D981731F0828DE80FF11D56
:100C9000858D90E008958FEF9FEF0895FC01918D71
:100CA000228D892F90E0805C9F4F821B91098F736A
:100CB000992708958BEC93E00E944E0621E0892B42
:100CC00009F420E0822F089588E694E00E944E0601
:100CD00021E0892B09F420E0822F0895FC01A48DE6
:100CE000A80FB92FB11DA35ABF4F2C91848D90E04E
:100CF00001968F739927848FA689B7892C93A08931
:100D0000B1898C91837080648C93938D848D9813BA
:100D100006C00288F389E02D80818F7D808308954D
:100D2000EF92FF920F931F93CF93DF93EC0181E03B
:100D3000888F9B8D8C8D98131AC0E889F9898081E2
:100D400085FF15C09FB7F894EE89FF896083E88915
:100D5000F98980818370806480839FBF81E090E007
:100D6000DF91CF911F910F91FF90EF900895F62E94
:100D70000B8D10E00F5F1F4F0F731127E02E8C8D2E
:100D80008E110CC00FB607FCFACFE889F989808173
:100D900085FFF5CFCE010E946E06F1CFEB8DEC0FF3
:100DA000FD2FF11DE35AFF4FF0829FB7F8940B8F90
:100DB000EA89FB8980818062CFCFCF93DF93EC01FA
:100DC000888D8823B9F0AA89BB89E889F9898C9133
:100DD00085FD03C0808186FD0DC00FB607FCF7CFEF
:100DE0008C9185FFF2CF808185FFEDCFCE010E94EF
:100DF0006E06E9CFDF91CF91089580E090E0892BD6
:100E000029F00E94640681110E94000080E090E0B9
:100E1000892B29F00E945A0681110E94000080E06F
:100E200090E0892B49F080E090E0892B29F00E9426
:100E3000000081110E94000080E090E0892B49F0C1
:100E400080E090E0892B29F00E94000081110C9431
:100E500000000895AF92BF92CF92DF92EF92FF927F
:100E60000F931F93CF93DF936B017A01EC01CC5466
:100E7000DC4F28813CE0389F8001399F100D112400
:100E8000A0909505B12C27FF1FC0FB011182108295
:100E900088818F5F888388819801280F311D87FDA5
:100EA0003A95F6012A153B051CF488818C30C4F173
:100EB00080819181049680349C4908F473C0F601C6
:100EC00080819181049670C088819801280F311D1E
:100ED00087FD3A952A153B05DCF68881A801480F65
:100EE000511D87FD5A95FA01EE0FFF1FE40FF51F04
:100EF000EB5FFA4F808186FFCBCF8881F801E80F46
:100F0000F11D87FDFA95CF01EE0FFF1FE80FF91FC6
:100F1000EB5FFA4F808160E08F730E94A203B8CF2D
:100F2000808191812881A801420F511D27FD5A958A
:100F30009A01FA01EE0FFF1FE20FF31FEB5FFA4F6A
:100F400021813281820F931FF701918380838881F1
:100F50009801280F311D87FD3A95F901EE0FFF1F0B
:100F6000E20FF31FEB5FFA4F808186FF22C088817A
:100F7000080F111D87FD1A95F801EE0FFF1FE00FF6
:100F8000F11FEB5FFA4F808161E08F73DF91CF91AA
:100F90001F910F91FF90EF90DF90CF90BF90AF9097
:100FA0000C94A20380E49CE9F701918380838FEF86
:100FB0008883DF91CF911F910F91FF90EF90DF9089
:100FC000CF90BF90AF9008952091C9033091CA038C
:100FD0002817390771F49091C7038091C8039817B7
:100FE00041F0E091C703F0E0EC58FC4F808190E0C5
:100FF00008958FEF9FEF08950895EF92FF920F935A
:101000001F93CF93DF93DC015C96ED90FC905D978E
:10101000E114F10479F481E090E013969C938E93AF
:10102000129790E080E0DF91CF911F910F91FF9098
:10103000EF9008955196ED91FC91529750968C91B6
:101040005097982F90950FB75E962C915E97122F20
:10105000127021FD6095F8942081112319F1282B3D
:101060002083E7012197F1F728E0462F50E03081F7
:1010700060FF1AC0382B3083E7012197F1F7BA01DE
:1010800075956795215089F7112381F08081892317
:1010900080830FBF5C968D919C910197F1F781E061
:1010A00090E0C1CF2923DCCF3923E5CF9081892B74
:1010B000EFCF2091C9033091CA032817390761F493
:1010C0008091C8032091C70390E0805C9F4F821BF2
:1010D00091098F739927089590E080E008952091F9
:1010E000C9033091CA0328173907B9F49091C7038F
:1010F0008091C803981789F0E091C703F0E0EC589D
:10110000FC4F80812091C70330E02F5F3F4F2F734A
:1011100033272093C70390E008958FEF9FEF089542
:10112000089590E080E00895CF93DF93C091B803D5
:10113000D091B903C53BD1057CF4CE010E94EE02EB
:101140006FE070E080E090E00E94A6042296D093C9
:10115000B903C093B803EACFDF91CF91089560E05F
:1011600088E20C94A20360E082E20E94A20360E0A5
:1011700083E20C94A203CF93DF93EC0160E08E81B5
:101180000E94A20361E08E810E94A20360E08E8132
:101190000E94A2038BE891E00197F1F7DF91CF91D4
:1011A0000895CF92DF92EF92FF920F931F93CF9308
:1011B000DF936C017C0187E0E80EF11CD0E0C0E019
:1011C000062F10E0B8010C2E02C0759567950A94A1
:1011D000E2F76170F70181917F010E94A2032196DD
:1011E000C430D10579F7C601DF91CF911F910F91DE
:1011F000FF90EF90DF90CF900C94BB08CF92DF92DE
:10120000EF92FF920F931F93CF93DF93EC01F62E93
:10121000642F8C810E94A2038D818F3F19F060E0C2
:101220000E94A2030F2D10E08F8584FF25C06E0160
:1012300087E0C80ED11CF12CE12CB8010E2C02C0A5
:10124000759567950A94E2F76170F60181916F01D7
:101250000E94A203FFEFEF1AFF0A88E0E816F104EC
:1012600061F7CE01DF91CF911F910F91FF90EF9029
:10127000DF90CF900C94BB08B80184E0759567951A
:101280008A95E1F7CE010E94D1086F2DCE01DF9142
:10129000CF911F910F91FF90EF90DF90CF900C9422
:1012A000D10840E0682F89E995E00C94FE0881E0C0
:1012B0000E9451098BE39FE10197F1F70895CF93C5
:1012C000DF93813029F09091A80598609093A8054C
:1012D0008093AC051092AD0580E48093AE0580E16B
:1012E0008093AF0580E58093B00561E080919D0516
:1012F0000E942E0480919E058F3F19F061E00E94AC
:101300002E0461E080919F050E942E04C9E9D5E07A
:101310009E01295935408091A80584FD0BC084E0C9
:1013200090E021962817390744F461E08E810E94ED
:101330002E04EECF88E090E0F4CF8BE39DE00197A0
:10134000F1F760E080919D050E94A20360E080912A
:101350009F050E94A20380919E058F3F19F060E0D7
:101360000E94A2038091A80584FD34C063E089E94E
:1013700095E00E94D108CBE4D6E4CE010197F1F7C5
:1013800063E089E995E00E94D1082197F1F763E0D5
:1013900089E995E00E94D10883E592E00197F1F791
:1013A00062E089E995E00E94D1088091A8058062F9
:1013B0000E94510984E08093A9058CE00E945109A4
:1013C0000E94570982E08093AA0586E0DF91CF91C1
:1013D0000C94510980620E9451098BE496E40197B4
:1013E000F1F78091A80580620E94510983E592E09F
:1013F0000197F1F78091A80580620E945109D5CF2D
:101400009091AC05891710F08FEF890FE82FF0E06D
:10141000E756FA4F848980680C94510941E00E9494
:10142000FE0881E090E00895FB0101900020E9F7BB
:101430003197AF01461B570BDC01ED91FC91028007
:10144000F381E02D1994CF93DF936AE184EC95E06A
:101450000E94FD07EC0166E372E084EC95E00E94D7
:10146000140A8C0F9D1FDF91CF9108958F929F9248
:10147000AF92BF92EF92FF920F931F93CF93DF93A0
:10148000CDB7DEB7A1970FB6F894DEBF0FBECDBFC4
:101490007C01FA01CB0119A2223008F42AE08E0166
:1014A0000F5D1F4F822E912CB12CA12CBF01A501E5
:1014B00094010E947418F901CA016A300CF5605D4C
:1014C000D8016E938D01232B242B252B79F790E0E7
:1014D00080E0109721F0BD01C7010E94140AA19677
:1014E0000FB6F894DEBF0FBECDBFDF91CF911F9135
:1014F0000F91FF90EF90BF90AF909F908F900895C5
:10150000695CDECF4F925F926F927F928F929F9233
:10151000AF92BF92CF92DF92EF92FF920F931F9301
:10152000CF936B017C01742EAC019B010E94B81912
:1015300069E372E0811126C046015701E894B7F8CB
:101540002FEF3FEF4FE75FE7C501B4010E94B819E5
:1015500081110CC02FEF3FEF4FE75FE7C501B401EA
:101560000E941E176DE372E0181664F02FEF3FEF34
:101570004FE75FE4C701B6010E94B3191816ACF437
:1015800061E472E088E694E0CF911F910F91FF90A3
:10159000EF90DF90CF90BF90AF909F908F907F9013
:1015A0006F905F904F900C94140A2FEF3FEF4FE72E
:1015B0005FECC701B6010E941E1787FDE1CF20E056
:1015C00030E0A901C701B6010E941E1710E000E03B
:1015D00087FF0AC06DE288E694E00E9490068C01C5
:1015E000F7FAF094F7F8F094C0E060E070E080E083
:1015F0009FE37C1641F020E030E040E251E40E949D
:101600001219CF5FF6CFA70196010E94A6182B01F1
:101610003C010E9484194B015C012AE0BC01A40139
:1016200088E694E00E94360A7C01E00EF11ECC238D
:10163000D1F1C501B4010E9423179B01AC01C30184
:10164000B2010E94A5184B015C016EE288E694E0AD
:101650000E949006E80EF91EC15028F120E030E00B
:1016600040E251E4C501B4010E9484172B013C0102
:101670000E9484194B01B12CA12C2AE0B501A401D0
:1016800088E694E00E94360AE80EF91EC501B4010E
:101690000E9423179B01AC01C301B2010E94A5184F
:1016A0004B015C01D9CFC701CF911F910F91FF90E2
:1016B000EF90DF90CF90BF90AF909F908F907F90F2
:1016C0006F905F904F9008950F931F93CF93DF9388
:1016D000EC010E94140A8C0166E372E0CE010E94C4
:1016E000140A800F911FDF91CF911F910F910895E0
:1016F0000C94140ACF92DF92EF92FF926C010E9439
:10170000570965E472E089E995E00E94780B0D2C99
:10171000000CEE08FF082AE0B701A601F7FE0EC094
:1017200041E06DE289E995E00E94FE0844275527D3
:10173000BA014C195D096E097F092AE089E995E033
:101740000E94360A63E572E089E995E0FF90EF9028
:10175000DF90CF900C94780BCF93DF93EC018881CE
:101760009981009711F00E94741A198218821D82C3
:101770001C821B821A82DF91CF910895FC01808127
:101780009181009711F00C94741A08950F931F9390
:10179000CF93DF93EC0188819981009759F02A81DA
:1017A0003B812617370730F081E0DF91CF911F9101
:1017B0000F9108958B016F5F7F4F0E94FD1A009774
:1017C00059F0998388831B830A832C813D81232BC5
:1017D00059F7FC011082E8CF80E0E7CFEF92FF924B
:1017E0000F931F93CF93DF93EC01FB01E080F18017
:1017F000E114F10411F10481158101151105A9F01D
:101800008C819D81080F191FB801CE010E94C60B63
:10181000882399F0288139818C819D81B701820FBD
:10182000931F0E94E71B1D830C83CE01DF91CF9194
:101830001F910F91FF90EF900895CE010E94AC0B85
:10184000F4CFEF92FF920F931F93CF93DF93EC01AE
:101850007B018A01BA010E94C60B81110BC0CE0127
:101860000E94AC0BCE01DF91CF911F910F91FF90A1
:10187000EF9008951D830C83B701888199810E94A0
:10188000E71BF0CFEF92FF920F931F93CF93DF935D
:10189000CDB7DEB7A1970FB6F894DEBF0FBECDBFB0
:1018A0007C01CB01BA01F7011182108213821282EE
:1018B000158214828E010F5F1F4F22E044E00E94C8
:1018C000AF140097C9F0FC0101900020E9F73197AF
:1018D000AF01481B590BBC01C7010E94210CA19606
:1018E0000FB6F894DEBF0FBECDBFDF91CF911F9131
:1018F0000F91FF90EF900895C7010E94AC0BEFCFBE
:10190000FC01118210821382128215821482FB0163
:1019100001900020E9F73197AF01461B570B0C945B
:10192000210C1F920F920FB60F9211242F933F9309
:101930008F939F93AF93BF938091C3039091C40300
:10194000A091C503B091C6033091BE0323E0230FDD
:101950002D3758F50196A11DB11D2093BE0380932C
:10196000C3039093C403A093C503B093C6038091AF
:10197000BF039091C003A091C103B091C20301962F
:10198000A11DB11D8093BF039093C003A093C10319
:10199000B093C203BF91AF919F918F913F912F91CF
:1019A0000F900FBE0F901F90189526E8230F0296F8
:1019B000A11DB11DD2CF1F920F920FB60F9211240D
:1019C0000BB60F922F933F934F935F936F937F9339
:1019D0008F939F93AF93BF93EF93FF938BEC93E021
:1019E0000E946E06FF91EF91BF91AF919F918F91F1
:1019F0007F916F915F914F913F912F910F900BBE0F
:101A00000F900FBE0F901F9018951F920F920FB658
:101A10000F9211240BB60F922F938F939F93EF93F6
:101A2000FF93E091DB03F091DC038081E091E1031F
:101A3000F091E20382FD1DC090818091E4038F5FED
:101A40008F732091E503821741F0E091E403F0E009
:101A5000E553FC4F958F8093E403FF91EF919F91A5
:101A60008F912F910F900BBE0F900FBE0F901F9074
:101A700018958081F2CF1F920F920FB60F9211240A
:101A80000BB60F922F933F934F935F936F937F9378
:101A90008F939F93AF93BF93EF93FF9388E694E068
:101AA0000E946E06FF91EF91BF91AF919F918F9130
:101AB0007F916F915F914F913F912F910F900BBE4E
:101AC0000F900FBE0F901F9018951F920F920FB698
:101AD0000F9211240BB60F922F938F939F93EF9336
:101AE000FF93E0917804F09179048081E0917E0485
:101AF000F0917F0482FD1DC09081809181048F5FF1
:101B00008F7320918204821741F0E0918104F0E00C
:101B1000E859FB4F958F80938104FF91EF919F913E
:101B20008F912F910F900BBE0F900FBE0F901F90B3
:101B300018958081F2CF1F920F920FB60F92112449
:101B40000BB60F922F933F934F935F936F937F93B7
:101B50008F939F93AF93BF93EF93FF9348E251E02E
:101B600064E271E090E080E00E942A07FF91EF912B
:101B7000BF91AF919F918F917F916F915F914F91A5
:101B80003F912F910F900BBE0F900FBE0F901F90A3
:101B900018951F920F920FB60F9211240BB60F9249
:101BA0002F933F934F935F936F937F938F939F9365
:101BB000AF93BF93EF93FF9348EA50E064EA70E07D
:101BC00083E090E00E942A07FF91EF91BF91AF91CF
:101BD0009F918F917F916F915F914F913F912F9145
:101BE0000F900BBE0F900FBE0F901F9018951F9275
:101BF0000F920FB60F9211240BB60F922F933F93B3
:101C00004F935F936F937F938F939F93AF93BF9304
:101C1000EF93FF9348E950E064E970E082E090E0E0
:101C20000E942A07FF91EF91BF91AF919F918F91F1
:101C30007F916F915F914F913F912F910F900BBECC
:101C40000F900FBE0F901F9018951F920F920FB616
:101C50000F9211240BB60F922F933F934F935F93E4
:101C60006F937F938F939F93AF93BF93EF93FF9364
:101C700048E850E064E870E081E090E00E942A07C4
:101C8000FF91EF91BF91AF919F918F917F916F9154
:101C90005F914F913F912F910F900BBE0F900FBE10
:101CA0000F901F9018951F920F920FB60F9211244C
:101CB0000BB60F922F933F934F935F936F937F9346
:101CC0008F939F93AF93BF93EF93FF93E091C903DB
:101CD000F091CA03309749F0A685B7858585968D22
:101CE00091FF16C09C918923B1F4FF91EF91BF91B0
:101CF000AF919F918F917F916F915F914F913F91A4
:101D00002F910F900BBE0F900FBE0F901F90189544
:101D10009C91892351F7A389B4899C9185898095E9
:101D200089238C93868997890197F1F7608D718D4E
:101D3000A685B785558538E020E0CB010197F1F7FE
:101D4000822F90E095958795282F4C91452309F097
:101D50002068315091F7868D81FD20958091C803D0
:101D600090E001968F7399273091C703381799F047
:101D7000A091C803B0E0AC58BC4F2C938093C8032B
:101D8000828D938D0197F1F7A389B4898C91958900
:101D9000892B8C93AACF868D8160868FF1CFCF93CC
:101DA0001092CE031092CD0388EE93E0A0E0B0E055
:101DB0008093CF039093D003A093D103B093D20329
:101DC0002AE032E03093CC032093CB034DEC50E07B
:101DD0005093D8034093D7034CEC50E05093DA0370
:101DE0004093D90348EC50E05093DC034093DB036D
:101DF00049EC50E05093DE034093DD034AEC50E0A1
:101E00005093E0034093DF034EEC50E05093E20325
:101E10004093E1031092E4031092E5031092E6036D
:101E20001092E70310926B0410926A0480936C0482
:101E300090936D04A0936E04B0936F043093690483
:101E40002093680425EC30E03093750420937404EB
:101E500024EC30E0309377042093760420EC30E0DB
:101E6000309379042093780421EC30E030937B04A4
:101E700020937A0422EC30E030937D0420937C049C
:101E800026EC30E030937F0420937E04109281048E
:101E90001092820410928304109284041092C70559
:101EA0001092C6058093C8059093C905A093CA05F2
:101EB000B093CB0588E292E09093C5058093C4056A
:101EC0001092DB051092DA051092DD051092DC0508
:101ED0001092DF051092DE051092E1051092E005E8
:101EE0006091E2056E7F6D7F6093E205669561709B
:101EF00081E068278AE00E94A20361E08AE00E94F4
:101F00002E04EAE4F3E0E491E093D405E4E0F3E0A6
:101F1000E491F0E0EE0FFF1FE052FD4F85919491A8
:101F20009093D6058093D50560E089E00E942E0449
:101F30008091E20581FD04C061E089E00E94A20376
:101F400089E08093D005E9E4F3E0E491E093D105E2
:101F5000E3E0F3E0E491F0E0EE0FFF1FEA53FD4F02
:101F6000859194919093D3058093D20587E08093D7
:101F7000B60586E18093B705E7E4F3E0E491E093EA
:101F8000B805E1E0F3E0E491E093B90540E85EE3F1
:101F900060E070E04093BE055093BF056093C005BC
:101FA0007093C10510929C0510929B052CE132E0C4
:101FB00030939A05209399059AE190939D05CFEF70
:101FC000C0939E059BE190939F058093A00587E1B8
:101FD0008093A10588E18093A20589E18093A30500
:101FE0001092A4051092A5051092A6051092A705BF
:101FF0001092A80581E00E945F09809195058033C9
:10200000A0F491E0980F909395058093960590E049
:10201000FC01EE0FFF1FE80FF91FEB5FFA4F88EB93
:102020009BE092838183CF910895C0939605FBCF67
:10203000CF93DF93CDB7DEB764970FB6F894DEBFCA
:102040000FBECDBF789484B5826084BD84B58160B5
:1020500084BD85B5826085BD85B5816085BD809173
:102060006E00816080936E001092810080918100EB
:1020700082608093810080918100816080938100E3
:10208000809180008160809380008091B1008460A5
:102090008093B1008091B00081608093B000809106
:1020A0009100826080939100809191008160809383
:1020B0009100809190008160809390008091A100B8
:1020C00082608093A1008091A10081608093A10033
:1020D0008091A00081608093A000809121018260A6
:1020E0008093210180912101816080932101809161
:1020F000200181608093200180917A008460809328
:102100007A0080917A00826080937A0080917A00D0
:10211000816080937A0080917A00806880937A0051
:102120001092C10084E00E945F090E941F028BECA4
:1021300093E00E94F80162E08091B6050E942E04AF
:102140002FB7F8948091C3039091C403A091C50365
:10215000B091C6032FBF805D9740A109B10980935C
:10216000BA059093BB05A093BC05B093BD0587E36A
:102170008093C30580919605803308F052C061E0DA
:1021800084E00E942E0480919605282F30E0F9010A
:10219000EE0FFF1FE20FF31FEB5FFA4F9081907C71
:1021A0009460908310929705109298052CE0622F0E
:1021B0000E94BD19829FB001112430E020E0AB01E4
:1021C000420F531FFA01EE0FFF1FE40FF51FEB5FE5
:1021D000FA4F908196FD17C02F5F3F4F2C3031058D
:1021E00071F7813009F068C01092800082E080931E
:1021F00081001092850010928400B19A80916F0046
:10220000826080936F00E09196058E2F90E0FC0134
:10221000EE0FFF1FE80FF91FEB5FFA4F808180641C
:10222000808390E080E00E94EE0261E08EE10E94F7
:102230002E0460E088E30E942E0460E089E30E949F
:102240002E0461E082E20E942E0461E083E20E949B
:102250002E0461E086E20E942E0461E088E20E9482
:102260002E0460E086E20E94A2030E94AF080E9452
:102270001F0288E694E00E94F80122242A9433E0A9
:10228000332E412C512C86E30E946A048C010E945B
:10229000D804882351F08091B7058B3030F08D3011
:1022A000B8F18551823008F465C0812C912C20EC66
:1022B000A22E2FE7B22E4AC0823061F41092900015
:1022C00080939100109295001092940088BB8093A7
:1022D000710099CF833069F41092A00082E080935E
:1022E000A1001092A5001092A40089BB80937200F7
:1022F0008ACF811188CF1092200182E08093210142
:1023000010922501109224018ABB809373007BCF29
:102310006091B20570E090E080E00E9425172DECFE
:102320003CEC4CEC5DE30E9484176B017C016091F6
:10233000B10570E090E080E00E9425179B01AC01A0
:10234000C701B6010E94A6184B015C010E94D80487
:10235000882309F474C08091B7058C3009F478C0E3
:10236000D8F48B3091F1C12CD12C80ECE82E8FE782
:10237000F82E55C06091B1057091B2057627672798
:10238000762790E080E00E9423172DEC3CEC4CEC8B
:102390005DE30E948417D8CF8551823020F770907A
:1023A000B305672D70E0762F662766277F778091CB
:1023B000B405682B90E080E00E9423172DEC3CECE4
:1023C0004CEC5DE30E9484175FC06091B30570E040
:1023D00090E080E00E9423176B017C017090B405AF
:1023E00077FE0AC0AC019B0160E070E080E89FEBE3
:1023F0000E94A5186B017C01672D6F7070E090E062
:1024000080E00E9425172DEC3CEC4CEC5DE30E9433
:102410008417A70196010E94A6186B017C01A501F3
:102420009401C501B4010E94B819811108C0A70127
:102430009601C701B6010E94B819882371F165E5BC
:1024400072E088E694E00E94640B0E94FD061BCFB8
:102450007090B305672D70E090E080E00E94231734
:102460006B017C016091B4056F7070E090E080E0DA
:102470000E9425172DEC3CEC4CEC5DE30E94841788
:10248000A70196010E94A6186B017C0177FEC7CFB9
:10249000F7FAF094F7F8F094C2CF65E772E088E6B7
:1024A00094E00E94780B42E0C501B4010E94820AC8
:1024B00060E872E088E694E00E94780B64E872E0DD
:1024C00088E694E00E94780B42E0C701B6010E94C2
:1024D000820A62E972E088E694E00E94640B89E374
:1024E0000E946A049C8B8B8B0E94570980E00E949B
:1024F000000AB701A601CE0101960E94420C66E9CE
:1025000072E0CE010D960E94800C18861F821A86FA
:1025100019861C861B866D857E856115710531F0D7
:1025200049895A89CE0107960E94210CBE016F5F2E
:102530007F4FCE0107960E94EE0B0E941406CE013B
:1025400007960E94BE0BCE010D960E94BE0BCE01D7
:1025500001960E94BE0B20E030E040EA51E4C70142
:10256000B6010E941E177090BA0387FFD6C0711083
:102570000BC06EE972E08BEC93E00E94640B0E944A
:10258000940881E08093BA030E94AF0861E08EE175
:102590000E94A2030E94B3080E94570980E00E9493
:1025A000000A6BEB72E089E995E00E94780B24E663
:1025B00030E0D8010E94D119A20191010E94421875
:1025C000C901243131050CF060C11092BB030E9497
:1025D0007A0B81E00E94000A67EC72E089E995E0DD
:1025E0000E94780B82E00E94000A68ED72E089E99F
:1025F00095E00E94780B83E00E94000A63EE72E08F
:1026000089E995E00E94780B61E086E20E94A203CE
:102610002B893C89B901330F880B990B0E94251730
:1026200020E030EC4FE754E40E94121920E030E043
:1026300040E651E40E9484176B017C0160E273E084
:1026400080E090E00E94A6040E94570981E00E9469
:10265000000AB701A601CE0101960E94420C64E374
:1026600073E0CE010D960E94800C18861F821A8698
:1026700019861C861B866D857E856115710531F076
:1026800049895A89CE0107960E94210CBE016F5FCD
:102690007F4FCE0107960E94EE0B0E941406CE01DA
:1026A00007960E94BE0BCE010D960E94BE0BCE0176
:1026B00001960E94BE0B82E00E94000A20E030E0FA
:1026C00040ED50E4C701B6010E94B31918160CF092
:1026D00011C11092BD038091BC03811111C081E032
:1026E0008093BC036AE373E084EC95E00E94640B82
:1026F00064E670E080E090E00E94A6040E94230A55
:1027000060E273E080E090E00E94A60464E670E07E
:1027100080E090E00E94A60498CE20E030E048ECF3
:1027200051E4C701B6010E94B319181694F561E08F
:1027300088E20E94A2037720F9F069EA72E08BEC4C
:1027400093E00E94640BE090B803F090B903F7FCAB
:1027500011C0C7010E94EE026FE070E080E090E0DF
:102760000E94A60422E0E21AF108F092B903E09276
:10277000B803E9CF1092BA0361E082E20E94A2039B
:1027800060E083E20E94A20360E08EE10E94A20367
:1027900003CF71100BC06EE972E08BEC93E00E94E6
:1027A000640B0E94940881E08093BA030E94AF08F2
:1027B0000E94B30860E08EE10E94A2030E945709C4
:1027C00080E00E94000AB501A401CE010D960E948E
:1027D000420C64EB72E0CE0101960E94800C1886D8
:1027E0001F821A8619861C861B8669817A8161156B
:1027F000710561F5BE01635F7F4FCE0107960E94B0
:10280000EE0B0E941406CE0107960E94BE0BCE016D
:1028100001960E94BE0BCE010D960E94BE0B20E0D9
:1028200030E048E452E4C501B4010E941E1787FF5E
:1028300014C061E088E20E94A2030E94B30860E233
:1028400073E080E090E00E94A604B1CE4D815E81ED
:10285000CE0107960E94210CCDCF20E030E044EB62
:1028600052E4C501B4010E94B31918165CF460E08B
:1028700082E20E94A20361E083E20E94A2030E941E
:10288000AF08DDCF0E94B308FACF245131092932B5
:102890003105C0F41092BB030E947A0B81E00E94C4
:1028A000000A6EEE72E089E995E00E94780B82E002
:1028B0000E94000A63EE72E089E995E00E94780BBD
:1028C00060E0A3CE0E947A0B8091BB038111F8CF08
:1028D00081E08093BB036AEF72E084EC95E00E9494
:1028E000640B64E670E080E090E00E94A6040E9421
:1028F000230AE6CF20E030E040EB50E4C701B60108
:102900000E941E171092BC0387FF0AC08091BD036E
:102910008111F6CE81E08093BD0367E573E0E4CEDC
:102920001092BD03EDCE88E292E09093C5058093AE
:10293000C4058091C9039091CA03845C954071F4E9
:10294000E091D705F091D80590818091D9058095C7
:10295000892380831092CA031092C9030895EF92CD
:102960000F931F93CF93DF93E80134E047FD34E1E9
:10297000042E000C550B57FF03C05195419551098A
:10298000E32E022F242FAE010E94CD14CE01DF9141
:10299000CF911F910F91EF9008958F929F92AF92D8
:1029A000BF92CF92DF92EF92FF920F931F93CF933C
:1029B000DF9300D000D000D0CDB7DEB76A01F22E91
:1029C000B02E102FFBE3AF2EA01608F41BE31F5F01
:1029D000012F27E0AE014F5F5F4F0E944616BC01FA
:1029E0008981982F9970913009F44EC09BE2E1FCE7
:1029F00004C09E2D9170E0FC49C05E2D5071E82FFF
:102A0000E87083FF55C084E0911101C083E0EF2D91
:102A1000E81B8F1508F0E0E0D6018E2F20E2552349
:102A2000C9F1992329F0D6019C93C60101966C0146
:102A300096012D5F3F4FE2FE33C08EE4D6018C93AA
:102A400091E411969C93119712968C93D9018E2F35
:102A500090E281112AC0E20FF32FF11D10828EEF58
:102A60009FEF29960FB6F894DEBF0FBECDBFDF9162
:102A7000CF911F910F91FF90EF90DF90CF90BF907B
:102A8000AF909F908F9008959DE2B7CF90E2B5CF21
:102A90002D9381508111FCCFCE0ED11CE0E0C1CF2F
:102AA0008EE6D6018C9391E6CCCF9D938150D1CF09
:102AB000482F447082FF3DC084E0911101C083E043
:102AC0008F1510F4EF2DE81BD6018E2F20E2552331
:102AD00009F1992329F0D6019C93C60101966C0156
:102AE00096012D5F3F4FE2FE1BC089E4D6018C9317
:102AF0008EE411968C93119786E412968C93D901EB
:102B00008E2F90E2882309F4A6CF9D938150FACFAF
:102B10002D9381508111FCCFCE0ED11CE0E0D9CF96
:102B200089E6D6018C938EE611968C93119786E6F2
:102B3000E4CF9B0177FF02C030E020E0A1E0B0E0ED
:102B4000911102C0B0E0A0E0F9013196AE0FBF1FB5
:102B50008B2C912CBB2009F461C05401EFEFAE1A0D
:102B6000BE0AAA0DBB1DFA161B0619F014F04F2D54
:102B70004A1B511188C0E3FC59C07601A42FB0E272
:102B8000A1114FC0C40ED11C992309F45BC040E0D1
:102B9000D6011196F60190836D01552309F448C0C2
:102BA000012F060F9A81582F507184FF03C0913373
:102BB00009F4015010160CF047C0093008F008E085
:102BC000EEE2FE2E5B01A01AB1088501919481947A
:102BD00091082F3F320729F4D601FC92F601319675
:102BE0006F016217730794F1021713077CF5DB017D
:102BF000A21BB30BAA24A394B12CAC0EBD1EAA0D2C
:102C0000BB1D11968C9121503109D60111962815C2
:102C10003905F4F0F60180836D01DBCFB12CA12CD6
:102C2000A0CFF701B1937F01A150AACF9111B0CFEE
:102C3000D601942F50E302C05D9391509111FCCFC7
:102C4000C40ED11C40E0ACCF01E0BACF80E3DBCFB3
:102C50006217730731F4963388F4953311F45523D2
:102C600069F0F6018083FD01842F90E2811108C094
:102C7000A40FB11D1C9290E080E0F3CE81E3F1CF70
:102C800091938150F3CF911183CF8ACF283008F0F0
:102C900027E03327DA01990F311D87FD91600096F7
:102CA0006105710539F432602E5F3D9330E32A955A
:102CB000E1F708959F3F30F080387105610509F014
:102CC0003C5F3C5F3D93913008F08068911DDF933D
:102CD000CF931F930F93FF92EF92192F987F9695A2
:102CE000E92F96959695E90FFF27EA53FE4F99270E
:102CF0003327EE24FF24A701E701059008940794E9
:102D000028F4360FE71EF81E491F511D660F771F66
:102D1000881F991F0694A1F70590079428F4E70EE1
:102D2000F81E491F561FC11D770F881F991F661F68
:102D30000694A1F70590079428F4F80E491F561F32
:102D4000C71FD11D880F991F661F771F0694A1F713
:102D50000590079420F4490F561FC71FD81F990FDD
:102D6000661F771F881F0694A9F784911095177026
:102D700041F0D695C79557954795F794E7941A95DE
:102D8000C1F7ECE6F1E068941590159135916591E5
:102D9000959105907FE27395E118F10A430B560B6C
:102DA000C90BD009C0F7E10CF11E431F561FC91F04
:102DB000D01D7EF4703311F48A95E6CFE89401506B
:102DC00030F0080F0AF40027021708F4202F23958B
:102DD000022F7A3328F079E37D932A95E9F710C022
:102DE0007D932A9589F6069497956795379517955B
:102DF0001794E118F10A430B560BC90BD00998F050
:102E000023957E9173957A3308F070E37C932013B9
:102E1000B8F77E9170617D9330F0839571E37D9377
:102E200070E32A95E1F71124EF90FF900F911F9125
:102E3000CF91DF91992787FD909508950E946017A3
:102E400008F481E00895E89409C097FB3EF490955A
:102E50008095709561957F4F8F4F9F4F9923A9F073
:102E6000F92F96E9BB279395F69587957795679502
:102E7000B795F111F8CFFAF4BB0F11F460FF1BC046
:102E80006F5F7F4F8F4F9F4F16C0882311F096E9D9
:102E900011C0772321F09EE8872F762F05C0662387
:102EA00071F096E8862F70E060E02AF09A95660F40
:102EB000771F881FDAF7880F9695879597F90895F9
:102EC000990F0008550FAA0BE0E8FEEF161617063B
:102ED000E807F907C0F012161306E407F50798F0A3
:102EE000621B730B840B950B39F40A2661F0232BBC
:102EF000242B252B21F408950A2609F4A140A69538
:102F00008FEF811D811D08950E9497170C9408185A
:102F10000E94FA1738F00E94011820F0952311F052
:102F20000C94F1170C94F71711240C943C180E9480
:102F3000191870F3959FC1F3950F50E0551F629FCC
:102F4000F001729FBB27F00DB11D639FAA27F00D02
:102F5000B11DAA1F649F6627B00DA11D661F829F29
:102F60002227B00DA11D621F739FB00DA11D621F0E
:102F7000839FA00D611D221F749F3327A00D611D2B
:102F8000231F849F600D211D822F762F6A2F11240D
:102F90009F5750409AF0F1F088234AF0EE0FFF1F40
:102FA000BB1F661F771F881F91505040A9F79E3F97
:102FB000510580F00C94F1170C943C185F3FE4F33A
:102FC000983ED4F3869577956795B795F795E795ED
:102FD0009F5FC1F7FE2B880F911D9695879597F9F6
:102FE000089597F99F6780E870E060E008959FEF8B
:102FF00080EC089500240A94161617061806090690
:10300000089500240A94121613061406050608955E
:10301000092E0394000C11F4882352F0BB0F40F4E6
:10302000BF2B11F460FF04C06F5F7F4F8F4F9F4F26
:10303000089557FD9058440F551F59F05F3F71F0A8
:103040004795880F97FB991F61F09F3F79F087950F
:103050000895121613061406551FF2CF4695F1DF98
:1030600008C0161617061806991FF1CF8695710528
:10307000610508940895E894BB2766277727CB015C
:1030800097F90895052E97FB1EF400940E94591895
:1030900057FD07D00E94741807FC03D04EF40C941F
:1030A000591850954095309521953F4F4F4F5F4FA0
:1030B000089590958095709561957F4F8F4F9F4FA4
:1030C00008950E949618A59F900DB49F900DA49FFF
:1030D000800D911D11240895B7FF0C9461180E9472
:1030E0006118821B930B0895A1E21A2EAA1BBB1B29
:1030F000FD010DC0AA1FBB1FEE1FFF1FA217B307C4
:10310000E407F50720F0A21BB30BE40BF50B661FD9
:10311000771F881F991F1A9469F76095709580959D
:1031200090959B01AC01BD01CF010895A29FB00114
:10313000B39FC001A39F700D811D1124911DB29FEB
:10314000700D811D1124911D08955058BB27AA2789
:103150000E94BD180C9408180E94FA1738F00E94BB
:10316000011820F039F49F3F19F426F40C94F71756
:103170000EF4E095E7FB0C94F117E92F0E94191863
:1031800058F3BA17620773078407950720F079F49C
:10319000A6F50C943B180EF4E0950B2EBA2FA02D3B
:1031A0000B01B90190010C01CA01A0011124FF27F4
:1031B000591B99F0593F50F4503E68F11A16F040EF
:1031C000A22F232F342F4427585FF3CF46953795EE
:1031D0002795A795F0405395C9F77EF41F16BA0BB3
:1031E000620B730B840BBAF09150A1F0FF0FBB1F61
:1031F000661F771F881FC2F70EC0BA0F621F731FAA
:10320000841F48F4879577956795B795F7959E3F06
:1032100008F0B0CF9395880F08F09927EE0F979597
:10322000879508950E9426190C9408180E94011889
:1032300058F00E94FA1740F029F45F3F29F00C94EF
:10324000F11751110C943C180C94F7170E9419189F
:1032500068F39923B1F3552391F3951B550BBB27C5
:10326000AA2762177307840738F09F5F5F4F220F0A
:10327000331F441FAA1FA9F335D00E2E3AF0E0E801
:1032800032D091505040E695001CCAF72BD0FE2F4B
:1032900029D0660F771F881FBB1F261737074807DF
:1032A000AB07B0E809F0BB0B802DBF01FF27935897
:1032B0005F4F3AF09E3F510578F00C94F1170C9453
:1032C0003C185F3FE4F3983ED4F386957795679575
:1032D000B795F7959F5FC9F7880F911D96958795CC
:1032E00097F90895E1E0660F771F881FBB1F6217EB
:1032F00073078407BA0720F0621B730B840BBA0BA9
:10330000EE1F88F7E09508950E94211888F09F57D6
:1033100098F0B92F9927B751B0F0E1F0660F771FF9
:10332000881F991F1AF0BA95C9F714C0B13091F0EF
:103330000E943B18B1E008950C943B18672F782F3A
:103340008827B85F39F0B93FCCF3869577956795B4
:10335000B395D9F73EF490958095709561957F4F20
:103360008F4F9F4F08950E94601708F48FEF0895C4
:103370000E946017880B990B0895991B79E004C08F
:10338000991F961708F0961B881F7A95C9F78095A4
:103390000895EE0FFF1F881F8BBF0790F691E02D59
:1033A00019940E949618B7FF0895821B930B0895F5
:1033B0000F931F93CF93DF938230910510F482E037
:1033C00090E0E091E505F091E60530E020E0B0E026
:1033D000A0E0309799F42115310509F44AC0281B63
:1033E000390B24303105D8F58A819B81611571052F
:1033F00089F1FB0193838283FE0111C040815181D9
:103400000281138148175907E0F04817590799F4CA
:10341000109761F012960C93129713961C933296A4
:10342000CF01DF91CF911F910F9108950093E50592
:103430001093E605F4CF2115310551F042175307DB
:1034400038F0A901DB019A01BD01DF01F801C1CF0C
:10345000EF01F9CF9093E6058093E505CDCFFE010E
:10346000E20FF31F8193919322503109398328830E
:10347000D7CF2091E3053091E405232B41F420912F
:103480000202309103023093E4052093E30520917A
:103490000002309101022115310541F42DB73EB7EC
:1034A0004091040250910502241B350BE091E30585
:1034B000F091E405E217F307A0F42E1B3F0B281749
:1034C000390778F0AC014E5F5F4F2417350748F09D
:1034D0004E0F5F1F5093E4054093E3058193919352
:1034E0009FCFF0E0E0E09CCFCF93DF930097E9F02F
:1034F000FC01329713821282A091E505B091E60596
:10350000ED0130E020E01097A1F420813181820F9D
:10351000931F2091E3053091E4052817390709F03E
:1035200061C0F093E405E093E305DF91CF91089546
:10353000EA01CE17DF07E8F54A815B819E0141155C
:103540005105B1F7E901FB83EA8349915991C40F11
:10355000D51FEC17FD0761F4808191810296840FDD
:10356000951FE90199838883828193819B838A8354
:10357000F0E0E0E012968D919C9113970097B9F5D9
:103580002D913C911197CD010296820F931F2091AE
:10359000E3053091E4052817390739F6309751F5DE
:1035A0001092E6051092E505B093E405A093E305BB
:1035B000BCCFD383C28340815181840F951FC8172C
:1035C000D90761F44E5F5F4F88819981480F591F79
:1035D000518340838A819B819383828321153105A6
:1035E00009F0B0CFF093E605E093E5059ECFFD012D
:1035F000DC01C0CF13821282D7CF4F925F926F92BD
:103600007F928F929F92AF92BF92CF92DF92EF9272
:10361000FF920F931F93CF93DF938C01009799F440
:10362000CB01DF91CF911F910F91FF90EF90DF9031
:10363000CF90BF90AF909F908F907F906F905F9052
:103640004F900C94D819FC01E60FF71F9C012250F3
:103650003109E217F30708F4AEC0D901CD91DC912E
:103660001197C617D70720F1C530D10578F0CE01E4
:1036700004978617970750F0C61BD70B2297C19364
:10368000D1936D937C93CF010E94741AC801DF918E
:10369000CF911F910F91FF90EF90DF90CF90BF904F
:1036A000AF909F908F907F906F905F904F90089514
:1036B0005B01AC1ABD0A4C018C0E9D1EA091E50564
:1036C000B091E605512C412CF12CE12C109731F5ED
:1036D0008091E3059091E4058815990509F05CC097
:1036E0004616570608F058C08091000290910102DA
:1036F000009741F48DB79EB74091040250910502A6
:10370000841B950BE817F90708F055C0F093E40502
:10371000E093E305F90171836083B8CF8D919C91AB
:10372000119712966C90129713967C901397A81588
:10373000B90559F56C0142E0C40ED11CCA14DB0472
:1037400020F1AC014A195B09DA011296159780F055
:103750006282738251834083D9016D937C93E1141B
:10376000F10471F0D7011396FC93EE9312978ECF6C
:1037700022968C0F9D1FF90191838083F301EFCF77
:10378000F093E605E093E50581CF4816590608F465
:103790002C017D01D3019ACFCB010E94D8197C0165
:1037A000009749F0AE01B8010E94DE1BC8010E94DB
:1037B000741A87016BCF10E000E068CFFB01DC01D9
:1037C00002C001900D9241505040D8F70895FB017E
:1037D000DC0101900D920020E1F7089511E0C4ECA6
:1037E000D1E000E006C0802FFE010E94C919219699
:1037F000011DC53CD10780E00807A9F7F894FFCF69
:103800000000E7058000000000009006E7051D06A7
:10381000DD064E062C064006000000000E0AE705F5
:103820009108900800000000FD07E7059108FC07DB
:1038300059086F08E4070D0A006E616E00696E6634
:10384000006F7666004D6F697374757265206973D9
:103850003A200025004661696C656420746F20720F
:103860006561642066726F6D204448542073656EF4
:10387000736F72210048756D69646974793A20002C
:103880002025090054656D70657261747572653A22
:103890002000202A430054656D70203D20004F70A9
:1038A000656E696E672E2E2E00436C6F73696E67AE
:1038B0002E2E2E0048756D203D200041646A7573E0
:1038C000742054656D70004E65656420697272697C
:1038D000676174696F6E21005475726E696E67203E
:1038E0006F6E0057617465722070756D700054754D
:1038F000726E696E67206F6666005761726E696EE0
:10390000673A204F7665722D7361747572617469C0
:103910006F6E202D20506C6561736520696D70722B
:103920006F766520647261696E6167652073797373
:1039300074656D005048203D20005761726E696EBD
:10394000673A205048206F6620736F696C20746F4F
:103950006F2068696768005761726E696E673A2008
:103960005048206F6620736F696C20746F6F206CF5
:043970006F7700006D
:020000040003F7
:10E000000D9489F10D94B2F10D94B2F10D94B2F129
:10E010000D94B2F10D94B2F10D94B2F10D94B2F1F0
:10E020000D94B2F10D94B2F10D94B2F10D94B2F1E0
:10E030000D94B2F10D94B2F10D94B2F10D94B2F1D0
:10E040000D94B2F10D94B2F10D94B2F10D94B2F1C0
:10E050000D94B2F10D94B2F10D94B2F10D94B2F1B0
:10E060000D94B2F10D94B2F10D94B2F10D94B2F1A0
:10E070000D94B2F10D94B2F10D94B2F10D94B2F190
:10E080000D94B2F10D94B2F10D94B2F10D94B2F180
:10E090000D94B2F10D94B2F10D94B2F10D94B2F170
:10E0A0000D94B2F10D94B2F10D94B2F10D94B2F160
:10E0B0000D94B2F10D94B2F10D94B2F10D94B2F150
:10E0C0000D94B2F10D94B2F10D94B2F10D94B2F140
:10E0D0000D94B2F10D94B2F10D94B2F10D94B2F130
:10E0E0000D94B2F141546D656761323536300041AF
:10E0F000726475696E6F206578706C6F72657220DE
:10E1000073746B3530305632206279204D4C530099
:10E11000426F6F746C6F616465723E004875683F52
:10E1200000436F6D70696C6564206F6E203D200048
:10E130004350552054797065202020203D20005FF9
:10E140005F4156525F415243485F5F3D2000415658
:10E1500052204C696243205665723D20004743437C
:10E160002056657273696F6E203D20004350552024
:10E1700049442020202020203D20004C6F7720663D
:10E18000757365202020203D20004869676820665F
:10E190007573652020203D200045787420667573D6
:10E1A00065202020203D20004C6F636B2066757336
:10E1B000652020203D20004D617220203720323024
:10E1C000313300312E362E3800342E332E350056A2
:10E1D00023202020414444522020206F7020636F70
:10E1E00064652020202020696E73747275637469E1
:10E1F0006F6E2061646472202020496E74657272B3
:10E20000757074006E6F20766563746F7200726A49
:10E210006D702020006A6D70200057686174207056
:10E220006F72743A00506F7274206E6F7420737541
:10E2300070706F72746564004D7573742062652030
:10E2400061206C6574746572002000577269747483
:10E25000696E672045450052656164696E672045B7
:10E26000450045452065727220636E743D00504F35
:10E27000525400303D5A65726F2061646472003FF1
:10E280003D43505520737461747300403D454550C3
:10E29000524F4D207465737400423D426C696E6B41
:10E2A000204C454400453D44756D70204545505215
:10E2B0004F4D00463D44756D7020464C415348001B
:10E2C000483D48656C70004C3D4C69737420492F83
:10E2D0004F20506F72747300513D51756974005234
:10E2E0003D44756D702052414D00563D73686F7707
:10E2F00020696E7465727275707420566563746FF0
:10E30000727300593D506F727420626C696E6B00BD
:10E310002A0011241FBECFEFD1E2DEBFCDBF01E046
:10E320000CBF12E0A0E0B2E0EEE1FDEF03E00BBFB6
:10E3300002C007900D92A030B107D9F712E0A0E01B
:10E34000B2E001C01D92AE30B107E1F70F9460F367
:10E350000D948DFE01E20EBF0FEF0DBF11241FBE05
:10E360000D9460F30D9400F020E030E040ED57E0B4
:10E3700005C0FA013197F1F72F5F3F4F2817390792
:10E38000C0F308959C01260F311DC901A0E0B0E043
:10E390002F5F3F4FABBFFC018791882361F08093D3
:10E3A000C6008091C00086FFFCCF8091C0008064D1
:10E3B0008093C000EACF08958DE08093C6008091DD
:10E3C000C00086FFFCCF8091C00080648093C000B5
:10E3D0008AE08093C6008091C00086FFFCCF8091C8
:10E3E000C00080648093C00008950F94C2F10F9420
:10E3F000DCF10895FC019081992359F09093C600B7
:10E400008091C00086FFFCCF8091C0008064809323
:10E41000C0003196992379F70895282F982F929567
:10E420009F70892F805D8A3308F0895F8093C600D2
:10E430008091C00086FFFCCF8091C00080648093F3
:10E44000C000822F8F70982F905D9A3308F0995FEB
:10E450009093C6008091C00086FFFCCF8091C000E1
:10E4600080648093C00008959C01FB01853691056E
:10E470001CF46330710594F0C90164E670E00F94F8
:10E480002EFE605D7F4F6093C6008091C00086FFC6
:10E49000FCCF8091C00080648093C0002B30310598
:10E4A00014F43297B4F0C90164E670E00F942EFEC4
:10E4B0006AE070E00F942EFE605D7F4F6093C600AF
:10E4C0008091C00086FFFCCF8091C0008064809363
:10E4D000C000C9016AE070E00F942EFEC0968093E0
:10E4E000C6008091C00086FFFCCF8091C000806490
:10E4F0008093C00008951F93182F8EE692EE60E07F
:10E500000F94C2F11093C6008091C00086FFFCCF2B
:10E510008091C00080648093C0000F94DCF11F9153
:10E5200008952F923F924F925F926F927F928F92B7
:10E530009F92AF92BF92CF92DF92EF92FF920F9392
:10E540001F93DF93CF93CDB7DEB762970FB6F894E2
:10E55000DEBF0FBECDBF382E622ECA01DB015C01CB
:10E560006D01772420E2222E2E010894411C511CBB
:10E570008BC081E0A81680E0B80681E0C80680E084
:10E58000D80628F0C601AA27BB270F940DF2BB2797
:10E59000AD2D9C2D8B2D0F940DF28A2D0F940DF225
:10E5A0002092C6008091C00086FFFCCF8091C00001
:10E5B00080648093C0009DE29093C6008091C0006B
:10E5C00086FFFCCF8091C00080648093C0002092C1
:10E5D000C6008091C00086FFFCCF8091C00080649F
:10E5E0008093C00019828601750188249924A1E0D6
:10E5F0003A1651F03A1620F0B2E03B1661F409C029
:10E600000BBFF701779007C0C7010F9477FE782EF4
:10E6100002C0F7017080872D0F940DF22092C60082
:10E620008091C00086FFFCCF8091C0008064809301
:10E63000C000872D8052F401EF70F0708F3520F408
:10E64000E40DF51D708204C0E40DF51D8EE280839B
:10E650000894E11CF11C011D111D0894811C911CE2
:10E6600090E18916910409F0C2CF80E190E0A0E02A
:10E67000B0E0A80EB91ECA1EDB1E198AC2010F9493
:10E68000FAF10F94DCF16A94662009F072CF629679
:10E690000FB6F894DEBF0FBECDBFCF91DF911F91B3
:10E6A0000F91FF90EF90DF90CF90BF90AF909F9031
:10E6B0008F907F906F905F904F903F902F90089534
:10E6C0002F923F924F925F926F927F928F929F9282
:10E6D000AF92BF92CF92DF92EF92FF920F931F9370
:10E6E000DF93CF93CDB7DEB7CD53D1400FB6F894BB
:10E6F000DEBF0FBECDBF01E20EBF0FEF0DBF94B75F
:10E70000F894A89514BE80916000886180936000A1
:10E7100010926000789493FF05C0E0910002F091A0
:10E7200001021995279A2F9A8091C00082608093E8
:10E73000C00080E18093C40088E18093C1000000A4
:10E74000EE24FF24870144E0A42EB12CCC24DD2448
:10E7500024C0C5010197F1F70894E11CF11C011DCB
:10E76000111D21E2E2162EE4F20620E0020720E06D
:10E77000120718F031E0C32ED12CC801B70127ECE5
:10E780003BE140E050E00F9441FE611571058105C9
:10E79000910519F485B1805885B98091C00087FD35
:10E7A00003C0C114D104A9F2A6014F5F5F4FC25E3E
:10E7B000DE4F59834883CE51D140C25EDE4F8881FF
:10E7C0009981CE51D140019711F00D9410FEC05D9A
:10E7D000DE4F19821882C053D14060E0C15DDE4F28
:10E7E0001882CF52D14088249924C35DDE4F19820C
:10E7F0001882CD52D140C05EDE4F188219821A8233
:10E800001B82C052D140CE5CDE4F188219821A8220
:10E810001B82C253D140EE24FF2487010BBFF701B6
:10E8200007911691C45CDE4F19830883CC53D14005
:10E830000D940BFEC25EDE4F28813981CE51D1404E
:10E840002130310509F52091C600C25EDE4F1982E4
:10E850001882CE51D14022C02F5F3F4F4F4F5F4FA4
:10E86000213082E138078AE7480780E0580780F0C6
:10E87000C45CDE4FE881F981CC53D140EF5FFF4F9C
:10E8800019F0EE27FF27099420E030E040E050E047
:10E890008091C00087FFE0CF2091C600C35DDE4FAE
:10E8A00048815981CD52D1404F5F5F4FC35DDE4FEC
:10E8B00059834883CD52D140213209F063C64A3092
:10E8C000510508F05FC60894811C911C53E0851621
:10E8D000910409F059C600E010E018C081E280936D
:10E8E000C6008091C00086FFFCCF8091C00080648C
:10E8F0008093C0002F5F3F4F2931310579F70F9486
:10E90000DCF10F5F1F4F0530110519F020E030E0FA
:10E91000E5CF10920A0210920B0210920C02109294
:10E920000D02109206021092070210920802109235
:10E930000902109202021092030210920402109235
:10E9400005028FEE90EE60E00F94F5F180E191EE1C
:10E9500060E00F94C2F18091C00087FFFCCF9091DE
:10E96000C600903608F09F759032B8F09093C600BC
:10E970008091C00086FFFCCF8091C00080648093AE
:10E98000C000A0E2A093C6008091C00086FFFCCF2B
:10E990008091C00080648093C000983409F4D7C18E
:10E9A0009934B8F4923409F459C1933458F490333B
:10E9B00019F1903308F4E3C59F33A1F1903409F0C5
:10E9C000DEC5BDC0953409F470C1963409F0D7C5D1
:10E9D00098C1923509F42BC2933538F49C3409F46C
:10E9E000F5C1913509F0CBC518C2963509F445C279
:10E9F000993509F0C4C567C483E792EE62E00F94CD
:10EA0000F5F110920602109207021092080210927D
:10EA1000090210920A0210920B0210920C0210923C
:10EA20000D0213C18FE792EE62E00F94F5F18FEEC5
:10EA300090EE60E00F94F5F181E291EE60E00F94CA
:10EA4000C2F187EB91EE60E00F94F5F180E391EE77
:10EA500060E00F94C2F184EE90EE60E00F94F5F167
:10EA60008FE391EE60E00F94C2F186E090E061E008
:10EA700070E00F9434F20F94DCF18DE591EE60E0DC
:10EA80000F94C2F189EC91EE60E00F94F5F18EE401
:10EA900091EE60E00F94C2F183EC91EE60E00F9490
:10EAA000F5F18CE691EE60E00F94C2F18EE10F94E7
:10EAB0000DF288E90F940DF281E00F940DF20F949E
:10EAC000DCF18BE791EE60E00F94C2F119E0E0E039
:10EAD000F0E010935700E4918E2F0F940DF20F94F5
:10EAE000DCF18AE891EE60E00F94C2F1E3E0F0E03F
:10EAF00010935700E4918E2F0F940DF20F94DCF1D8
:10EB000089E991EE60E00F94C2F1E2E0F0E0109349
:10EB10005700E4918E2F0F940DF20F94DCF188EAE8
:10EB200091EE60E00F94C2F1E1E0F0E01093570045
:10EB30001491812F0F940DF20F94DCF107CF8BE825
:10EB400092EE62E00F94F5F18BE492EE60E00F94A8
:10EB5000F5F10F94DCF100E010E019C0C8016F2D51
:10EB60000F947FFEFF2031F489E492EE60E00F9471
:10EB7000C2F10BC0F092C6008091C00086FFFCCFAE
:10EB80008091C00080648093C0000F5F1F4FC80158
:10EB900081519F41A0E0B0E0ABBFFC01F790BAE229
:10EBA000FB1621F0E2E000301E07C1F60F94DCF105
:10EBB0000F94DCF187E592EE60E00F94F5F10F948D
:10EBC000DCF1CC24DD2400E010E01EC0C8010F946D
:10EBD00077FEF82E882331F489E492EE60E00F94FA
:10EBE000C2F10BC08093C6008091C00086FFFCCFAD
:10EBF0008091C00080648093C000FE1419F00894D6
:10EC0000C11CD11C0F5F1F4FC80181519F41A0E063
:10EC1000B0E0ABBFFC01E790FAE2EF1621F022E092
:10EC20000030120799F60F94DCF10F94DCF182E6C4
:10EC300092EE60E00F94C2F1C60161E070E00F94C3
:10EC400034F20F94DCF10F94DCF110920202109276
:10EC50000302109204021092050278CE89E992EE26
:10EC600062E00F94F5F1279A2F9A16C02F9880E052
:10EC700090E0E0EDF7E03197F1F7019684369105E9
:10EC8000C1F72F9A80E090E0E0EDF7E03197F1F7DF
:10EC9000019684369105C1F78091C00087FFE6CFC9
:10ECA0008091C00087FFFCCF64C485EA92EE62E0E9
:10ECB0000F94F5F140910202509103026091040219
:10ECC0007091050281E020E10F9491F2809102029F
:10ECD00090910302A0910402B091050280509F4FD1
:10ECE000AF4FBF4F8093020290930302A0930402A0
:10ECF000B093050280509041A040B04008F426CE69
:10ED0000A4CF83EB92EE62E00F94F5F140910602FE
:10ED100050910702609108027091090280E020E1A1
:10ED20000F9491F28091060290910702A09108023F
:10ED3000B091090280509F4FAF4FBF4F80930602A2
:10ED400090930702A0930802B0930902FFCD80ECD4
:10ED500092EE62E00F94F5F183E792EE60E00F949B
:10ED6000F5F18FE792EE60E00F94F5F18BE892EE0B
:10ED700060E00F94F5F189E992EE60E00F94F5F10F
:10ED800085EA92EE60E00F94F5F183EB92EE60E09D
:10ED90000F94F5F180EC92EE60E00F94F5F187ECC2
:10EDA00092EE60E00F94F5F188ED92EE60E00F9442
:10EDB000F5F18FED92EE60E00F94F5F18AEE92EEB0
:10EDC00060E00F94F5F183E093EEBDCD87EC92EE19
:10EDD00062E00F94F5F181E40F947BF282E40F94EA
:10EDE0007BF283E40F947BF284E40F947BF285E45E
:10EDF0000F947BF286E40F947BF287E40F947BF20E
:10EE000088E40F947BF28AE40F947BF28BE40F94F6
:10EE10007BF28CE40F947BF299CD88ED92EE62E068
:10EE20000F94F5F1772473948824992409C48FED05
:10EE300092EE62E00F94F5F140910A0250910B02BC
:10EE400060910C0270910D0282E020E10F9491F22A
:10EE500080910A0290910B02A0910C02B0910D02D8
:10EE600080509F4FAF4FBF4F80930A0290930B0289
:10EE7000A0930C02B0930D0269CD8AEE92EE62E08F
:10EE80000F94F5F184EE90EE60E00F94F5F18FECC5
:10EE900091EE60E00F94F5F1662477244301CC5D98
:10EEA000DE4F19821882C452D140D401C301B695F5
:10EEB000A79597958795CA5DDE4F88839983AA8326
:10EEC000BB83C652D140CC5DDE4FA881B981C4520C
:10EED000D1401196CC5DDE4FB983A883C452D14096
:10EEE000CD0162E070E00F9434F2B0E2B093C6005E
:10EEF0008091C00086FFFCCF8091C0008064809329
:10EF0000C000EDE2E093C6008091C00086FFFCCF18
:10EF10008091C00080648093C000F0E2F093C6004E
:10EF20008091C00086FFFCCF8091C00080648093F8
:10EF3000C000CA5DDE4FE880F9800A811B81C6529D
:10EF4000D140BB27A12F902F8F2D0F940DF2CA5DBA
:10EF5000DE4F8881C652D1400F940DF2B0E2FB2EF5
:10EF6000F092C6008091C00086FFFCCF8091C00067
:10EF700080648093C0000DE30093C6008091C000C0
:10EF800086FFFCCF8091C00080648093C00010E2B7
:10EF90001093C6008091C00086FFFCCF8091C00016
:10EFA00080648093C0008BBEF3012791C65DDE4F65
:10EFB0002883CA52D140A22EBB24CC24DD2408943D
:10EFC000611C711C811C911C8BBEF3018791282E42
:10EFD0003324442455240894611C711C811C911C09
:10EFE0008BBEF3013791C55DDE4F3883CB52D140E4
:10EFF0000894611C711C811C911C8BBEF30147910C
:10F00000C45DDE4F4883CC52D140ADEFEA2EAFEF66
:10F01000FA2EAFEF0A2FAFEF1A2F6E0C7F1C801E57
:10F02000911E142D032DF22CEE24EA0CFB1C0C1D5A
:10F030001D1D0F940DF220E22093C6008091C000A8
:10F0400086FFFCCF8091C00080648093C000C65DC5
:10F05000DE4F8881CA52D1400F940DF230E23093D6
:10F06000C6008091C00086FFFCCF8091C000806404
:10F070008093C000C45DDE4F8881CC52D1400F9494
:10F080000DF240E24093C6008091C00086FFFCCFA5
:10F090008091C00080648093C000C55DDE4F888190
:10F0A000CB52D1400F940DF250E25093C6008091A4
:10F0B000C00086FFFCCF8091C00080648093C000B8
:10F0C0008FEFE8168FEFF80680E0080780E018075A
:10F0D00031F484E092EE60E00F94C2F1DFC0D80119
:10F0E000C7018070907CA070B0708050904CA040A0
:10F0F000B040D1F52FEF3FE340E050E0E222F322B1
:10F1000004231523CA5DDE4FA880B980CA80DB8046
:10F11000C652D140AE0CBF1CC01ED11EAA0CBB1CD7
:10F12000CC1CDD1C8EE092EE60E00F94C2F1BB2798
:10F13000A12F902F8F2D0F940DF28E2D0F940DF285
:10F1400030E23093C6008091C00086FFFCCF8091F2
:10F15000C00080648093C0004EE34093C60080915D
:10F16000C00086FFFCCF87C08EE09EEFA0E0B0E03D
:10F17000E822F9220A231B239CE0E91694E9F90608
:10F1800090E0090790E0190709F088C0C45DDE4FE0
:10F19000A881CC52D140EA2EFF2400E010E0102FCD
:10F1A0000F2DFE2CEE24C55DDE4FB881CB52D14031
:10F1B000EB0EF11C011D111DD601C501817090706F
:10F1C000A070B070DC0199278827E80EF91E0A1F8D
:10F1D0001B1F20EF30E040E050E0A222B322C42207
:10F1E000D52241E1AA0CBB1CCC1CDD1C4A95D1F7F1
:10F1F000EA0CFB1C0C1D1D1D81E090E0A0E0B0E0BE
:10F20000282239224A225B2235E1220C331C441C7D
:10F21000551C3A95D1F7E20CF31C041D151D57013E
:10F220006801AA0CBB1CCC1CDD1C85E192EE60E0E1
:10F230000F94C2F1C801AA27BB270F940DF2BB2778
:10F24000A12F902F8F2D0F940DF28E2D0F940DF274
:10F2500090E29093C6008091C00086FFFCCF809121
:10F26000C00080648093C000AEE3A093C60080918C
:10F27000C00086FFFCCF8091C00080648093C000F6
:10F28000C601AA27BB270F940DF2BB27AD2D9C2DDD
:10F290008B2D0F940DF28A2D0F940DF20F94DCF14B
:10F2A000CC5DDE4FE881F981C452D140F99709F471
:10F2B0004DCBF4E0EF2EF12C012D112D6E0C7F1CA7
:10F2C000801E911EF2CD83E093EE62E00F94F5F183
:10F2D0008AE192EE60E00F94C2F18091C00087FF56
:10F2E000FCCF1091C6001F751093C6008091C0001E
:10F2F00086FFFCCF8091C00080648093C0000F9493
:10F30000DCF1812F81548A3108F036C1163409F4BA
:10F3100095C0173490F4133409F44EC0143430F40B
:10F320001134F1F0123409F01DC130C0143409F465
:10F3300059C0153409F016C16BC01A3409F4C4C0A1
:10F340001B3438F4173409F48FC0183409F00AC19B
:10F35000A1C01B3409F4D2C01C3409F003C1E8C0B9
:10F360008FEF81B90DC082B1809582B980E090E0C5
:10F37000E0EDF7E03197F1F70196883C9105C1F790
:10F380008091C00087FFEFCF12B8EFC08FEF84B934
:10F390000DC085B1809585B980E090E0E0EDF7E0A3
:10F3A0003197F1F70196883C9105C1F78091C00033
:10F3B00087FFEFCF15B8D9C08FEF87B90DC088B1DF
:10F3C000809588B980E090E0E0EDF7E03197F1F7C3
:10F3D0000196883C9105C1F78091C00087FFEFCF6F
:10F3E00018B8C3C08FEF8AB90DC08BB180958BB9A7
:10F3F00080E090E0E0EDF7E03197F1F70196883C8E
:10F400009105C1F78091C00087FFEFCF1BB8ADC059
:10F410008FEF8DB90DC08EB180958EB980E090E0F0
:10F42000E0EDF7E03197F1F70196883C9105C1F7DF
:10F430008091C00087FFEFCF1EB897C08FEF80BBD1
:10F440000DC081B3809581BB80E090E0E0EDF7E0F6
:10F450003197F1F70196883C9105C1F78091C00082
:10F4600087FFEFCF11BA81C08FEF83BB0DC084B38C
:10F47000809584BB80E090E0E0EDF7E03197F1F714
:10F480000196883C9105C1F78091C00087FFEFCFBE
:10F4900014BA6BC08FEF809301010FC080910201FD
:10F4A00080958093020180E090E0E0EDF7E03197F5
:10F4B000F1F70196883C9105C1F78091C00087FF64
:10F4C000EDCF1092020151C08FEF809304010FC065
:10F4D0008091050180958093050180E090E0E0ED4A
:10F4E000F7E03197F1F70196883C9105C1F78091DB
:10F4F000C00087FFEDCF1092050137C08FEF8093DA
:10F5000007010FC08091080180958093080180E079
:10F5100090E0E0EDF7E03197F1F70196883C910536
:10F52000C1F78091C00087FFEDCF109208011DC088
:10F530008FEF80930A010FC080910B01809580931B
:10F540000B0180E090E0E0EDF7E03197F1F70196F4
:10F55000883C9105C1F78091C00087FFEDCF1092E4
:10F560000B0103C085E292EEEEC98091C00087FFD7
:10F57000FCCF8091C600EAC988E392EEE4C98CE131
:10F5800091EEE1C988249924933011F1943028F444
:10F59000913089F09230B8F408C0953061F195301F
:10F5A000F0F0963009F048C043C02B3109F042C951
:10F5B00091E06BE13FC96227C15DDE4F2883CF52E6
:10F5C000D14092E037C9B22FA0E0622793E032C960
:10F5D000822F90E0A82BB92B622794E02BC92E3004
:10F5E00009F039C3622795E0C05DDE4F19821882A9
:10F5F000C053D1401FC9E1E0F0E0EC0FFD1FC05D3A
:10F60000DE4F08811981C053D140E00FF11F2083E4
:10F610000F5F1F4FC05DDE4F19830883C053D14079
:10F6200062270A171B0709F005C9D80196E002C92D
:10F63000261709F010C303C0973009F0FBC87724E0
:10F640009981933109F412C19431C8F4963009F4C8
:10F65000D8C0973050F4923009F406C1933009F4C1
:10F660006DC0913009F059C253C0913109F477C08F
:10F67000923108F0BBC0903109F04FC2F5C098310B
:10F6800009F487C0993150F4953109F4EFC09531F0
:10F6900008F4C6C1963109F040C2C2C19A3109F4DA
:10F6A0006CC09A3108F491C09B3109F45BC09D3164
:10F6B00009F033C29D81903359F48F81882311F46E
:10F6C0009EE11CC0813011F091E018C098E916C08D
:10F6D000892F807591F0903539F4E0E0F0E089E011
:10F6E0008093570094910AC0983539F4E3E0F0E034
:10F6F00089E080935700949101C090E01A821B82A8
:10F700008D818C831D829E831F8227E030E009C299
:10F710001A8288E08B8381E48C8386E58D8382E581
:10F720008E8389E48F8383E5888780E589878FE5E9
:10F730008A8782E38B872BE030E0F3C18A818139AD
:10F7400041F0823941F0803911F48FE005C080E04A
:10F7500003C082E001C08AE01A828B8344C0772410
:10F76000739482C08D81882311F48EE12CC0813086
:10F7700011F081E028C088E926C01A82E1E0F0E0BB
:10F7800089E08093570084918B831C8224E030E0D1
:10F79000C8C18B81803589F48C81883039F4E2E0EE
:10F7A000F0E089E08093570084910DC0E0E0F0E044
:10F7B00089E080935700849106C0E3E0F0E089E09F
:10F7C0008093570084911A82DFCF8D81836C99E0FA
:10F7D000E1E0F0E0082E90935700E89507B600FCB2
:10F7E000FDCF1A821B8223E030E09BC180EC8A832C
:10F7F000CE5CDE4F188219821A821B82C253D1401E
:10F800008EC18A8190E0A0E0B0E0582F44273327D2
:10F8100022278B8190E0A0E0B0E0DC0199278827C7
:10F82000282B392B4A2B5B2B8D8190E0A0E0B0E098
:10F83000282B392B4A2B5B2B8C8190E0A0E0B0E089
:10F84000BA2FA92F982F8827282B392B4A2B5B2BCF
:10F85000220F331F441F551FC05EDE4F288339839C
:10F860004A835B83C052D1401A8259C13A81C95C34
:10F87000DE4F3883C753D140CA5CDE4F1882C6536F
:10F88000D1408B81C82EDD24CA5CDE4F488159816E
:10F89000C653D140C42AD52A933109F082C0CE5C28
:10F8A000DE4F88819981AA81BB81C253D1408050AB
:10F8B000904CA340B04030F583E0CE5CDE4FE88052
:10F8C000F9800A811B81C253D140F70100935B008C
:10F8D00080935700E89507B600FCFDCFCE5CDE4F65
:10F8E000088119812A813B81C253D14000501F4FAA
:10F8F0002F4F3F4FCE5CDE4F088319832A833B8313
:10F90000C253D140C05EDE4F488159816A817B81FC
:10F91000C052D140DE011B9631E08C9111962C91A2
:10F9200011971296C75CDE4F2883C953D140C85C3B
:10F93000DE4F1882C853D14090E0C85CDE4FE881AA
:10F94000F981C853D1408E2B9F2B0C01FA01609393
:10F950005B0030935700E89511244E5F5F4F6F4F67
:10F960007F4F0EEFE02E0FEFF02ECE0CDF1CC114F8
:10F97000D10499F685E0C05EDE4F088119812A81A5
:10F980003B81C052D140F80120935B008093570027
:10F99000E89507B600FCFDCF81E180935700E8951C
:10F9A00035C0C05EDE4F88819981AA81BB81C0527B
:10F9B000D140B695A795979587957C018601ABE0D8
:10F9C000AA2EB12CAC0EBD1E0BC0D5016D915D01F0
:10F9D000C7010F947FFE0894E11CF11C01501040F8
:10F9E0000115110591F7A60160E070E0440F551F65
:10F9F000661F771FC05EDE4FE880F9800A811B8199
:10FA0000C052D1404E0D5F1D601F711F1A82C05E33
:10FA1000DE4F488359836A837B83C052D1407FC0C5
:10FA2000FA80C55CDE4FF882CB53D140C65CDE4F16
:10FA30001882CA53D1408B81C82EDD24C65CDE4FAC
:10FA400008811981CA53D140C02AD12A1A828981DA
:10FA5000BE016D5F7F4F843121F59601C05EDE4FA0
:10FA6000E880F9800A811B81C052D1400BBFF701A9
:10FA700087919691DB018C9311969C936E5F7F4FDB
:10FA8000D801C7010296A11DB11DC05EDE4F88835B
:10FA90009983AA83BB83C052D14022503040F1F6F3
:10FAA00036C0C05EDE4F288139814A815B81C052F9
:10FAB000D1400894C108D108760100E010E0089414
:10FAC000C11CD11C0894E11CF11C011D111DE20E8A
:10FAD000F31E041F151F21BDBB27A52F942F832FB5
:10FAE00082BD2F5F3F4F4F4F5F4FF89A80B5DB01CC
:10FAF0008D93BD012E153F054007510761F7C05E8C
:10FB0000DE4F288339834A835B83C052D1409601FC
:10FB10002D5F3F4FFB01108204C080EC8A8322E0FE
:10FB200030E08BE18093C6008091C00086FFFCCF5F
:10FB30008091C00080648093C000C15DDE4FF88179
:10FB4000CF52D140F093C6008091C00086FFFCCF19
:10FB50008091C00080648093C000432F3093C60022
:10FB60008091C00086FFFCCF8091C00080648093AC
:10FB7000C000922F2093C6008091C00086FFFCCF6A
:10FB80008091C00080648093C0008EE08093C600A6
:10FB90008091C00086FFFCCF8091C000806480937C
:10FBA000C00065E1C15DDE4FE880CF52D1406E25D7
:10FBB00069276427FE01319610C090819093C6009A
:10FBC0008091C00086FFFCCF31968091C000806498
:10FBD0008093C0006927215030402115310569F715
:10FBE0006093C6008091C00086FFFCCF8091C0006A
:10FBF00080648093C00085B1805885B9772081F4F6
:10FC0000C15DDE4F0881CF52D1400F5FC15DDE4F35
:10FC10000883CF52D14090E0A0E0B0E00D941AF4F8
:10FC200027982F9880E090E020ED37E0F901319798
:10FC3000F1F7019684369105C9F700008091C00064
:10FC40008D7F8093C00081E180935700E895EE2777
:10FC5000FF270994FFCF90E00D941AF497FB092E2B
:10FC600007260AD077FD04D02ED006D000201AF443
:10FC7000709561957F4F0895F6F7909581959F4F08
:10FC80000895A1E21A2EAA1BBB1BFD010DC0AA1FDD
:10FC9000BB1FEE1FFF1FA217B307E407F50720F0F5
:10FCA000A21BB30BE40BF50B661F771F881F991F70
:10FCB0001A9469F760957095809590959B01AC01B9
:10FCC000BD01CF010895AA1BBB1B51E107C0AA1FAC
:10FCD000BB1FA617B70710F0A61BB70B881F991FED
:10FCE0005A95A9F780959095BC01CD010895F99991
:10FCF000FECF92BD81BDF89A992780B50895262F31
:10FD0000F999FECF1FBA92BD81BD20BD0FB6F89400
:0EFD1000FA9AF99A0FBE01960895F894FFCF63
:00000001FF
